{
  "_format": "hh-sol-artifact-1",
  "contractName": "GetPaid",
  "sourceName": "contracts/GetPaid.sol",
  "abi": [
    {
      "inputs": [
        {
          "internalType": "address",
          "name": "_contractAddress",
          "type": "address"
        }
      ],
      "stateMutability": "nonpayable",
      "type": "constructor"
    },
    {
      "anonymous": false,
      "inputs": [
        {
          "indexed": false,
          "internalType": "address",
          "name": "to",
          "type": "address"
        },
        {
          "indexed": false,
          "internalType": "address",
          "name": "from",
          "type": "address"
        },
        {
          "indexed": false,
          "internalType": "uint256",
          "name": "value",
          "type": "uint256"
        }
      ],
      "name": "Sended",
      "type": "event"
    },
    {
      "inputs": [
        {
          "internalType": "address",
          "name": "_to",
          "type": "address"
        }
      ],
      "name": "send",
      "outputs": [],
      "stateMutability": "payable",
      "type": "function"
    },
    {
      "inputs": [],
      "name": "transactionsCount",
      "outputs": [
        {
          "internalType": "uint256",
          "name": "_value",
          "type": "uint256"
        }
      ],
      "stateMutability": "view",
      "type": "function"
    }
  ],
  "bytecode": "0x608060405234801561001057600080fd5b50604051610559380380610559833981810160405281019061003291906100dc565b80600160006101000a81548173ffffffffffffffffffffffffffffffffffffffff021916908373ffffffffffffffffffffffffffffffffffffffff16021790555050610109565b600080fd5b600073ffffffffffffffffffffffffffffffffffffffff82169050919050565b60006100a98261007e565b9050919050565b6100b98161009e565b81146100c457600080fd5b50565b6000815190506100d6816100b0565b92915050565b6000602082840312156100f2576100f1610079565b5b6000610100848285016100c7565b91505092915050565b610441806101186000396000f3fe6080604052600436106100295760003560e01c80633e58c58c1461002e578063fd99a7461461004a575b600080fd5b61004860048036038101906100439190610235565b610075565b005b34801561005657600080fd5b5061005f6101b0565b60405161006c919061027b565b60405180910390f35b600034116100b8576040517f08c379a00000000000000000000000000000000000000000000000000000000081526004016100af906102f3565b60405180910390fd5b6000808273ffffffffffffffffffffffffffffffffffffffff16346040516100df90610344565b60006040518083038185875af1925050503d806000811461011c576040519150601f19603f3d011682016040523d82523d6000602084013e610121565b606091505b509150915081610166576040517f08c379a000000000000000000000000000000000000000000000000000000000815260040161015d906103a5565b60405180910390fd5b61017060006101bc565b7f185bbe1062468928df7b1b3478c9bb49cbeb63370006d39546094c3443d1fa3f8333346040516101a3939291906103d4565b60405180910390a1505050565b60008060000154905081565b6001816000016000828254019250508190555050565b600080fd5b600073ffffffffffffffffffffffffffffffffffffffff82169050919050565b6000610202826101d7565b9050919050565b610212816101f7565b811461021d57600080fd5b50565b60008135905061022f81610209565b92915050565b60006020828403121561024b5761024a6101d2565b5b600061025984828501610220565b91505092915050565b6000819050919050565b61027581610262565b82525050565b6000602082019050610290600083018461026c565b92915050565b600082825260208201905092915050565b7f53656e6420736f6d652045544800000000000000000000000000000000000000600082015250565b60006102dd600d83610296565b91506102e8826102a7565b602082019050919050565b6000602082019050818103600083015261030c816102d0565b9050919050565b600081905092915050565b50565b600061032e600083610313565b91506103398261031e565b600082019050919050565b600061034f82610321565b9150819050919050565b7f4661696c656420746f2073656e64204574686572000000000000000000000000600082015250565b600061038f601483610296565b915061039a82610359565b602082019050919050565b600060208201905081810360008301526103be81610382565b9050919050565b6103ce816101f7565b82525050565b60006060820190506103e960008301866103c5565b6103f660208301856103c5565b610403604083018461026c565b94935050505056fea264697066735822122004feb1c87bb46ebcc045deeb91d0e687ab96a3d3d0d764df6491f1ffdb9b7ad664736f6c63430008090033",
  "linkReferences": {},
  "deployedLinkReferences": {}
}